:100000000C9424010C9441010C9441010C94410185
:100010000C9441010C9441010C9441010C94410158
:100020000C9441010C9441010C9441010C94410148
:100030000C9441010C9441010C9441010C94410138
:100040000C9441010C9441010C9441010C94410128
:100050000C9441010C9441010C9441010C94410118
:100060000C9441010C9441010303784848000000BE
:10007000000000005F00000003000300127F127FF9
:1000800012042A7F2A10231308646236495522502D
:100090000000030000001C2241000041221C00144B
:1000A000083E081400081C0800005030000000083A
:1000B000080800006060000020100804023E41496A
:1000C000413E41417F40406251514A444149495D6E
:1000D00022040A09087F27494949313E49494932E2
:1000E00003017109073649494936264949493E0005
:1000F0003636000000563600000814224100001475
:1001000014140000412214080201510906324979F1
:10011000413E7C0A090A7C7F494949363E414141BA
:10012000227F4141413E7F494941417F0909010107
:100130003E4141493A7F0808087F41417F414121C2
:1001400041413F017F0C1221407F404040407F02EF
:1001500004027F7F0408107F3E4141413E7F090930
:1001600009061E4151215E7E091929466649494901
:100170003301017F01013F4040403F0738403807CD
:100180003F4030403F413608364101067806016362
:1001900051494763007F414100020408102000419B
:1001A000417F00040201020440404040400102003F
:1001B000000024545454787F4444447838444444E0
:1001C00028384444447F38545454287E0909010295
:1001D0000E5151513E7F0404047800007D00002040
:1001E00040403D007F1028400000007F00007C045C
:1001F00018047C7C0404047838444444387C141487
:10020000140808141478407C040404080854545456
:100210002008087E48083C4040403C0C3040300CF0
:100220003C4030403C442810284427483808070008
:1002300064544C44000877410000007F00000041F6
:10024000770800080408100811241FBECFEFD8E07B
:10025000DEBFCDBF12E0A0E0B1E0E6EAFCE102C003
:1002600005900D92A034B107D9F726E0A0E4B2E0E2
:1002700001C01D92A63AB207E1F70E9444010C9416
:10028000510E0C940000089500E010E020E835E2E3
:1002900040E050E060E874E88EE190E00E94A8073A
:1002A0008EE291E00E9413080E9402090E9452040B
:1002B00090936B0680936A060E945504909369069A
:1002C000809368060E94580490936F0680936E0690
:1002D0000E945B0490936D0680936C060E94430419
:1002E0000E94860563E471E08BE093E00E941403B2
:1002F0008FE493EC0197F1F700C0000082E083B92E
:100300000E94D403F5CFCF93DF93C0E0D0E014C0B8
:10031000E0916A06F0916B06EC0FFD1F408147707B
:10032000CE0165E070E00E94310AFB0121E0BC01D2
:10033000CF010E94EA052196C931D1054CF30E94F4
:10034000BB08DF91CF910895DF92EF92FF920F9358
:100350001F93CF93DF93CDB7DEB7E2970FB6F89434
:10036000DEBF0FBECDBF0E94E7084DE451E060E064
:1003700080E00E94BC09E0916E06F0916F068181D9
:100380008F9380818F9387E591E09F938F938E0168
:100390000F5F1F4F1F930F930E94450BA80162E050
:1003A00080E00E94BC0942E651E063E080E00E94E8
:1003B000BC09E0916806F091690681818F93808184
:1003C0008F930F2EF9E6EF2EF1E0FF2EF02DFF9226
:1003D000EF921F930F930E94450BA80164E080E009
:1003E0000E94BC094DE651E065E080E00E94BC0936
:1003F00086E080930401E0916C06F0916D068181A6
:100400008F9380818F93FF92EF921F930F930E949F
:10041000450BA80166E080E00E94BC090E94B60579
:100420000FB6F894DEBF0FBECDBF00E010E04DC0A8
:1004300040916A0650916B06D801AA0FBB1FAA0F04
:10044000BB1FA00FB11FA20FB31FA40FB51F9C911C
:10045000977061E009F060E0860FD90EF901EE0FA8
:10046000FF1FEE0FFF1FE20FF31FE00FF11FE40F5E
:10047000F51F9081977041E009F040E0E40EF90E1D
:100480002F5F3F4F06C020E030E0F12CD12CE12C53
:1004900080E02530310564F245E050E0B8010E946B
:1004A000F40645E050E0B8018D2D0E94B606A80183
:1004B00065E070E08E2D0E94F406A80165E070E012
:1004C0008F2D0E94B6060F5F1F4F05301105DCF21D
:1004D0000E94BB08E2960FB6F894DEBF0FBECDBFF8
:1004E000DF91CF911F910F91FF90EF90DF900895D2
:1004F000CF92DF92EF92FF921F93CF93DF93CDB70E
:10050000DEB76E970FB6F894DEBF0FBECDBF7C018D
:100510006B010E941B05182F882309F46EC08330DD
:1005200008F062C0F701EE0FFF1FEE0FFF1FEE0D88
:10053000FF1DEC0DFD1D80916A0690916B06E80F82
:10054000F91F4081242F287030E035952795359587
:100550002795359527954770B601C7010E94EA0592
:10056000E0916C06F0916D0681818F9380818F936D
:1005700089E691E09F938F93CE0101967C019F9332
:100580008F930E94450BA7016091040180E00E94B7
:10059000BC090F900F900F900F900F900F9012309A
:1005A00079F4E0916C06F0916D0680819181892B40
:1005B00039F445E751E067E080E00E94BC0911C0D2
:1005C000123079F4E0916C06F0916D068081918192
:1005D0001816190634F44FE751E067E080E00E94F6
:1005E000BC090E94BB0809C0833029F40E94830122
:1005F0000E94BB0802C00E94A4016E960FB6F89438
:10060000DEBF0FBECDBFDF91CF911F91FF90EF9066
:10061000DF90CF9008950E945E040E94A40188E7B5
:1006200092E00E943E0408959093A5068093A4064C
:10063000709371066093700687B18E6087B98AB136
:100640008C608AB988B18E6088B98BB18C608BB9A7
:100650008BB18F708BB985B18E7F85B98AB18F7060
:100660008AB984B18E7F84B984B1826084B980E014
:1006700090E008C0FC01EE0FFF1FEE58F94F118209
:100680001082019689319105ACF308950F931F9361
:10069000CF93DF938C0101501109C0E0D0E043C03B
:1006A00089B190E09E012C5F3F4F02C095958795E0
:1006B0002A95E2F780FF27C0F801EE0FFF1FEE0F2B
:1006C000FF1FE00FF11FEC0FFD1FEE0FFF1FEE5895
:1006D000F94F8081918101969183808381309105CA
:1006E00041F4E091A406F091A506BE01C801099568
:1006F00019C00A97B9F4E0917006F0917106BE0135
:10070000C80109950FC0F801EE0FFF1FEE0FFF1F84
:10071000E00FF11FEC0FFD1FEE0FFF1FEE58F94F1A
:10072000118210822196C430D1050CF4B9CF189BE8
:1007300028C0F801EE0FFF1FEE0FFF1FE00FF11FA3
:100740003496EE0FFF1FEE58F94F8081918101968C
:10075000918380838130910549F4E091A406F09162
:10076000A50664E070E0C801099519C00A97B9F4BC
:10077000E0917006F091710664E070E0C80109959F
:100780000EC0F801EE0FFF1FEE0FFF1FE00FF11F6D
:100790003496EE0FFF1FEE58F94F11821082DF9151
:1007A000CF911F910F9108950F931F93CF93DF93D4
:1007B00099B183B1907F8170892B19F41092400216
:1007C00058C080914002882351F00EC0FC01EE0F0A
:1007D000FF1FEE58F94F11821082019602C080E08F
:1007E00090E08931910594F388B1817F88B98BB10C
:1007F000837F8BB901E010E014C088B1C1E0D0E084
:10080000002E02C0CC0FDD1F0A94E2F78C2B88B9B2
:10081000C8010E94460388B1C095C823C8B90F5FBC
:100820001F4F043011054CF304E010E016C08BB1EB
:10083000980122503109C1E0D0E002C0CC0FDD1F89
:100840002A95E2F78C2B8BB9C8010E9446038BB125
:10085000C095C823CBB90F5F1F4F063011053CF37D
:1008600088B18E6088B98BB18C608BB981E0809340
:100870004002DF91CF911F910F9108959093A506AB
:100880008093A40608951092460210924502109299
:1008900044021092430210924202109241020E94BE
:1008A000010A089587E492E0089585E492E00895AE
:1008B00083E492E0089581E492E00895EF92FF923C
:1008C0001F93CF93DF9381E090E090934202809357
:1008D000410285EC91E00E9413088091050182306D
:1008E00091F48091430290914402019690934402C6
:1008F000809343020A97CCF089E090E09093440201
:100900008093430212C08091430290914402019768
:1009100090934402809343021816190634F081E044
:1009200090E09093440280934302209143023091DF
:100930004402C90166E070E00E94310AA9014C5FDF
:100940005F4F91E04930510508F090E0A9014B5FFD
:100950005F4FE62EEE0C8E2D880F880FE80E949FC9
:10096000E00C112415E0120FF12CB7018AED91E093
:100970000E942008612F70E085EE91E00E9420081F
:10098000C0E0D0E005C0FE01E95BFD4F108221967A
:10099000CE15DF05C4F30DC082E090E00E94DD09B2
:1009A00091E0980FFE01E95BFD4F8E5F8083191B7C
:1009B00021968FEF810F883178F306C0FE01E95B45
:1009C000FD4F81E080832196C931D105BCF3C8E198
:1009D000D0E00FC089E190E00E94DD09DE01A95B53
:1009E000BD4F2C91FC01E95BFD4F80818C932083EE
:1009F00021971C161D0674F310920501DF91CF910B
:100A00001F91FF90EF90089520E030E00FC0F901B2
:100A1000E95BFD4F4081842F877090E0029724F0BE
:100A2000842F887043FF06C02F5F3F4F2931310567
:100A300074F381E008959C0190910501913011F0CB
:100A4000933009F5409145025091460220914102B0
:100A500030914202240F351F309346022093450205
:100A60009F5F9093050180E090E007C0FC01E95B87
:100A7000FD4F208128602083019689319105B4F3D0
:100A800083E090E00895923011F0943029F40E94B0
:100A90005E0484E090E00895C901880F991F880FD3
:100AA000991F280F391F620F731FFB01E95BFD4F70
:100AB000808183FD25C08860FB01E95BFD4F808359
:100AC00087704091410250914202849F9001859F1E
:100AD000300D11243093420220934102811106C04F
:100AE00083E08093050182E090E008950E94040570
:100AF000882349F081E08093050182E090E0089529
:100B000080E090E0089581E090E008950E94E70879
:100B10004DE451E060E080E00E94BC094FEE51E0FE
:100B200062E080E00E94BC0943E052E063E080E0C4
:100B30000E94BC0945E152E064E080E00E94BC09EB
:100B400046E252E066E080E00E94BC094AE352E0DF
:100B500067E080E00E94BC090E94BB0808956F5BBB
:100B60007F4F4C5F5F4F0E9433090895EF92FF92D1
:100B70000F931F93CF93DF93E12CF12C20C0C7017B
:100B8000880F991F880F991F880F991F8701000FE1
:100B9000111F080F191FAE01B80181E00E94AF05B7
:100BA000A801BE0181E00E94AF05219602C0C0E00D
:100BB000D0E0C233D1051CF38FEFE81AF80A86E0C3
:100BC000E816F104A4F3DF91CF911F910F91FF90EC
:100BD000EF9008959F92AF92BF92CF92DF92EF92E3
:100BE000FF920F931F93CF93DF93443018F082E06E
:100BF00083B961C0922E7B018C01842F90E06C013F
:100C0000CC0CDD1CCC0CDD1C8C0D9D1D9C01265ECE
:100C10003E4F6901A12CB12C49C0C50165E070E0CF
:100C20000E94310A9801220F331F220F331F220F17
:100C3000331FA801440F551F420F531F460F571F64
:100C40009701220F331F220F331F220F331FB701CB
:100C5000660F771F620F731F680F791FD601EC9123
:100C6000E501C770D078DD2324F42197C86FDF6FCA
:100C7000219687E090E08C1B9D0BF0E002C0F5957B
:100C8000E7958A95E2F74E5F5F4F6D5F7F4F8E2F3E
:100C90008170899D802D11240E94AF05279719F43A
:100CA000BFEFCB1ADB0A2FEFA21AB20A33E2A31668
:100CB000B1040CF4B2CFDF91CF911F910F91FF904F
:100CC000EF90DF90CF90BF90AF909F900895AF923C
:100CD000BF92CF92DF92EF92FF920F931F93CF9329
:100CE000DF936C017B01042F10E0000F111F0A5FDE
:100CF0001E4FA12CB12C2BC0C50163E070E00E94F7
:100D0000310AF8012081E501C770D078DD2324F491
:100D10002197C86FDF6F219647E050E04C1B5D0BB9
:100D200030E002C0359527954A95E2F7AB014E0DAC
:100D30005F1DBC016C0D7D1D822F81700E94AF056F
:100D4000279711F40F5F1F4FFFEFAF1ABF0A8FE015
:100D5000A816B1048CF2DF91CF911F910F91FF90F3
:100D6000EF90DF90CF90BF90AF900895EF92FF92F9
:100D70000F931F93CF93DF93082FEB01CC0FDD1F51
:100D8000660F771F660F771F660F771FC60FD71F77
:100D900025967A01EE0CFF1C440F551F440F551F7A
:100DA000440F551FE40EF51E1DEC819F112D1124DB
:100DB000169516951695412FBE01C70103960E9400
:100DC0006706110F812F880F880F180F402F411BC6
:100DD000BE01C70107960E946706DF91CF911F9160
:100DE0000F91FF90EF9008959F92AF92BF92CF9294
:100DF000DF92EF92FF920F931F93CF93DF93982E82
:100E00005B016A01EE24E394F12C2EC0E501CC0FC6
:100E1000DD1FCC0FDD1FCC0FDD1FC501880F991F13
:100E2000C80FD91FC601880F991F880F991F880FF7
:100E3000991F8601000F111F080F191FC701880F86
:100E4000991F080F191FAE014E5F5F4FB80181E077
:100E50000E94AF05AE014D5F5F4FB80181E00E9477
:100E6000AF058FEFE81AF80A892D90E08E159F05DF
:100E70006CF6DF91CF911F910F91FF90EF90DF9073
:100E8000CF90BF90AF909F90089594EA9093BC004C
:100E90009091BC009923E4F79091B900987F983025
:100EA00029F09091B900987F903149F5672BA9F00E
:100EB00090E0880F991F81608093BB0084E8809345
:100EC000BC008091BC008823E4F78091B900887F42
:100ED0008034C1F08EEF9FEF0895880F8093BB00A0
:100EE00084E88093BC008091BC008823E4F7809163
:100EF000B900887F883149F08EEF9FEF08958FEF1A
:100F00009FEF089580E090E0089580E090E00895DC
:100F10008093BB0084E88093BC008091BC00882350
:100F2000E4F78091B900887F883261F4672B69F01B
:100F300084E98093BC008091BC0084FDFCCF80E0FC
:100F400090E008958DEF9FEF089580E090E0089580
:100F5000CF92DF92EF92FF920F931F936B017C0170
:100F6000CC0CDD1CEE1CFF1CD701C601880F991F9D
:100F7000AA1FBB1F880F991FAA1FBB1F8C0D9D1D89
:100F8000AE1DBF1DBC01CD01689413F896958795E1
:100F9000779567951694D1F70E94450ACA01B90161
:100FA0006B5F7F4F8F4F9F4F2AE030E040E050E073
:100FB0000E94450A21503109211580E13807C8F403
:100FC000E4E6F0E080818D7F80833093C50020933C
:100FD000C40088E18093C10086E08093C200012BA9
:100FE00059F0E1ECF0E080818068808380E090E05F
:100FF00005C08FEF9FEF02C080E090E01F910F913E
:10100000FF90EF90DF90CF9008959091C00095FFF2
:10101000FCCF9091C00096FF03C090E49093C00075
:101020008093C6000895CF93DF93EC0103C00E9424
:101030000508219688818111FACFDF91CF9108951B
:101040000F931F93CF93DF93CDB7DEB76E970FB695
:10105000F894DEBF0FBECDBF7F936F939F938F93A6
:101060008E010F5F1F4F1F930F930E94450BC80106
:101070000E9413080F900F900F900F900F900F90F9
:101080006E960FB6F894DEBF0FBECDBFDF91CF9145
:101090001F910F910895CF93C82F60E070E08CE30B
:1010A0000E944507892B61F460E070E080E00E94B7
:1010B0008807892B29F461E070E08C2F0E94880753
:1010C000CF910895CF93DF93C82FD62F60E070E0C3
:1010D0008CE30E944507892B99F460E070E080E082
:1010E0000E948807892B61F460E070E08C2F0E94D9
:1010F0008807892B29F461E070E08D2F0E94880712
:10110000DF91CF910895EF92FF920F931F93CF93AA
:10111000DF938C017B0160E070E08CE30E94450767
:10112000892B11F560E070E080E40E948807892B2C
:10113000D9F4C0E0D0E00BC060E070E0F801EC0F43
:10114000FD1F80810E948807892B71F42196C701B9
:101150000197C817D90780F3F801E80FF91F61E07C
:1011600070E080810E948807DF91CF911F910F91DD
:10117000FF90EF900895CF93DF9380E00E944B089B
:1011800080E10E944B08C0E0D0E01BC0FE01E05AA5
:10119000FD4F80818823A1F0FE01E05AFD4F1082AF
:1011A0008C2F80550E944B0860E870E0CE01969528
:1011B000982F88279795879588599D4F0E94830877
:1011C0002196C830D10514F3DF91CF91089580E0C6
:1011D00090E005C0FC01E859FD4F10820196811591
:1011E00024E09207BCF380E090E006C0FC01E05AE6
:1011F000FD4F21E02083019688309105BCF30E94C9
:10120000BB0808956FEB88EA0E94620860E083EDF6
:101210000E94620880E40E944B0880EA0E944B080A
:1012200080EC0E944B0862E18AED0E9462086FE741
:1012300081E80E94620884EA0E944B0886EA0E94C4
:101240004B0860E885ED0E94620864E18DE80E9429
:1012500062088FEA0E944B0862E080E20E94620806
:101260000E94E7080895CF93DF9360387105F0F589
:1012700040345105D8F59A01552314F4295F3F4FA6
:10128000359527953595279535952795F901F69547
:10129000FE2FEE27F795E7956E0F7F1FFB01E859AC
:1012A000FD4FA08147705078552334F441505109C7
:1012B000486F5F6F4F5F5F4FE1E0F0E0042E02C0C8
:1012C000EE0FFF1F0A94E2F790E002C0880F991F0B
:1012D0004A95E2F7EB01C859DD4FE095EA238E2BE2
:1012E0008883F901E05AFD4F81E08083DF91CF913F
:1012F0000895CF93DF93982F96952BEB929F912D86
:10130000112496959695969526E1929F8019112421
:10131000982F677081EE840F803608F040E2892FA5
:1013200090E09C01220F331F820F931F880F991F9B
:10133000C62FD0E09E013695322F2227379527956C
:10134000820F931F50E04F515109BA01660F771F6A
:10135000660F771F460F571FBA0168597F4F45E048
:1013600050E088599D4F0E943C0BC05ADD4F81E0F0
:101370008883DF91CF9108950F931F93CF93DF93CD
:10138000C82FD62F8A0110C06D2F8C2F0E9479098B
:101390000F5F1F4FCF5FC53138F0DF5FD83010F4DB
:1013A000C0E002C0D0E0C0E0F80140814111ECCFC4
:1013B000DF91CF911F910F910895CF93DF93EC01AF
:1013C0000E94E50A9E01DD0F440B550B0E94670A3F
:1013D000CB01DF91CF910895F999FECF92BD81BDE8
:1013E00060BD8FB384608FBB8FB382608FBB089565
:1013F000F999FECF92BD81BD8FB381608FBB80B55F
:101400000895CF92DF92EF92FF9280E090E00E94E9
:10141000F809C82ED12CE12CF12C81E090E00E943B
:10142000F80990E0A0E0B0E0BA2FA92F982F882704
:10143000BC01CD016C0D7D1D8E1D9F1D0E94330BC7
:101440000E94E50AF72E80E090E00E94EC096F2DE3
:1014500081E090E00E94EC09FF90EF90DF90CF9048
:10146000089597FB072E16F4009407D077FD09D056
:101470000E94860A07FC05D03EF4909581959F4F07
:101480000895709561957F4F0895A1E21A2EAA1BC9
:10149000BB1BFD010DC0AA1FBB1FEE1FFF1FA21724
:1014A000B307E407F50720F0A21BB30BE40BF50B21
:1014B000661F771F881F991F1A9469F760957095AA
:1014C000809590959B01AC01BD01CF010895052E3B
:1014D00097FB1EF400940E947E0A57FD07D00E94DD
:1014E000450A07FC03D04EF40C947E0A50954095B3
:1014F000309521953F4F4F4F5F4F089590958095C0
:10150000709561957F4F8F4F9F4F0895AA1BBB1B0E
:1015100051E107C0AA1FBB1FA617B70710F0A61BF3
:10152000B70B881F991F5A95A9F780959095BC0114
:10153000CD0108958F929F92AF92BF92CF92DF928A
:10154000EF92FF92CF93DF93EC01688179818A81DA
:101550009B81611571058105910521F464E279EDA6
:101560008BE597E02DE133EF41E050E00E94670A00
:1015700049015A019B01AC01A7EAB1E40E94F80DB0
:101580006B017C01ACEEB4EFA50194010E94060E44
:10159000DC01CB018C0D9D1DAE1DBF1DB7FF03C02F
:1015A0000197A109B04888839983AA83BB83BC01B2
:1015B000CD019F77DF91CF91FF90EF90DF90CF909B
:1015C000BF90AF909F908F9008958F929F92AF920F
:1015D000BF92CF92DF92EF92FF92609100017091E3
:1015E000010180910201909103016115710581054E
:1015F000910521F464E279ED8BE597E02DE133EF7D
:1016000041E050E00E94670A49015A019B01AC0188
:10161000A7EAB1E40E94F80D6B017C01ACEEB4EFD7
:10162000A50194010E94060EDC01CB018C0D9D1DCD
:10163000AE1DBF1DB7FF03C00197A109B04880933D
:10164000000190930101A0930201B0930301BC013A
:10165000CD019F77FF90EF90DF90CF90BF90AF903C
:101660009F908F9008956093000170930101809383
:101670000201909303010895FB01DC0102C0059073
:101680000D9241505040D8F70895AEE0B0E0EBE441
:10169000FBE00C94190E0D891E8986E08C831A8359
:1016A00009838FEF9FE79E838D83AE01475E5F4F77
:1016B0006F89788DCE0101960E94670BEF81F885C6
:1016C000E00FF11F10822E96E4E00C94350EABE093
:1016D000B0E0EDE6FBE00C940B0E6C017B018A019F
:1016E000FC0117821682838181FFCCC1CE01019655
:1016F0003C01F6019381F70193FD859193FF819160
:101700007F01882309F4BAC1853239F493FD8591AC
:1017100093FF81917F01853229F4B60190E00E9408
:101720005E0DE7CF912C212C312CFFE1F315D8F081
:101730008B3279F038F4803279F08332A1F4232DA2
:1017400020611DC08D3261F0803369F4232D21604A
:1017500016C0832D8260382EE32DE4603E2E2AC011
:10176000F32DF8601DC037FC2DC020ED280F2A3066
:1017700040F08E32B9F436FC81C1232D2064322E24
:1017800019C036FE06C08AE0989E200D1124922EC4
:1017900011C0EAE02E9E200D1124222EF32DF062BE
:1017A0003F2E08C08C3621F4832D8068382E02C06D
:1017B000883641F4F70193FD859193FF81917F0174
:1017C0008111B3CF982F9F7D9554933028F40C5FEF
:1017D0001F4F9FE399830DC0833631F0833771F03B
:1017E000833509F059C021C0F801808189830E5FDB
:1017F0001F4F88248394912C530113C02801F2E0D9
:101800004F0E511CF801A080B18036FE03C0692D37
:1018100070E002C06FEF7FEFC5010E94530D4C01D5
:101820008201F32DFF773F2E16C0280122E0420EE1
:10183000511CF801A080B18036FE03C0692D70E014
:1018400002C06FEF7FEFC5010E94480D4C01F32DE0
:10185000F0683F2E820133FC1BC0822D90E0881679
:101860009906B0F4B60180E290E00E945E0D2A94E1
:10187000F4CFF50137FC859137FE81915F01B60108
:1018800090E00E945E0D21102A9421E0821A9108B6
:101890008114910471F7E8C0843611F0893641F55E
:1018A000F80137FE07C060817181828193810C5FEE
:1018B0001F4F08C060817181072E000C880B990BA7
:1018C0000E5F1F4FF32DFF763F2E97FF09C09095B7
:1018D0008095709561957F4F8F4F9F4FF0683F2E99
:1018E0002AE030E0A3010E949A0D882E861845C098
:1018F000853731F4232D2F7EB22E2AE030E025C02B
:10190000932D997FB92E8F36C1F018F4883579F070
:10191000B5C0803719F0883721F0B0C0E92FE061F9
:10192000BE2EB4FE0DC0FB2DF460BF2E09C034FEE8
:101930000AC0292F2660B22E06C028E030E005C07C
:1019400020E130E002C020E132E0F801B7FE07C03C
:1019500060817181828193810C5F1F4F06C060811D
:10196000718180E090E00E5F1F4FA3010E949A0DED
:10197000882E8618FB2DFF773F2E36FE0DC0232DB7
:101980002E7FA22E891458F434FE0BC032FC09C0FD
:10199000832D8E7EA82E05C0B82CA32C03C0B82C96
:1019A00001C0B92CA4FE0FC0FE01E80DF11D80811D
:1019B000803321F49A2D997EA92E09C0A2FE06C07B
:1019C000B394B39404C08A2D867809F0B394A3FC31
:1019D00011C0A0FE06C0B21488F4280C922C9B18EB
:1019E0000EC0B21460F4B60180E290E00E945E0D79
:1019F000B394F7CFB21418F42B1802C0982C212CF2
:101A0000A4FE10C0B60180E390E00E945E0DA2FE2D
:101A100017C0A1FC03C088E790E002C088E590E011
:101A2000B6010CC08A2D867859F0A1FE02C08BE267
:101A300001C080E2A7FC8DE2B60190E00E945E0D3D
:101A4000891438F4B60180E390E00E945E0D9A9408
:101A5000F7CF8A94F301E80DF11D8081B60190E083
:101A60000E945E0D8110F5CF222009F442CEB6010E
:101A700080E290E00E945E0D2A94F6CFF601868106
:101A8000978102C08FEF9FEF2B96E2E10C94270E17
:101A9000FC010590615070400110D8F78095909539
:101AA0008E0F9F1F0895FC0161507040019001103E
:101AB000D8F7809590958E0F9F1F08950F931F93D1
:101AC000CF93DF93FB01238121FD03C08FEF9FEFB5
:101AD0002CC022FF16C046815781248135814217D0
:101AE000530744F4A081B1819D012F5F3F4F3183A3
:101AF00020838C93268137812F5F3F4F3783268346
:101B000014C08B01EC01FB010084F185E02D0995E7
:101B1000892BE1F6D80116968D919C911797019625
:101B200017969C938E931697CE01DF91CF911F91BC
:101B30000F910895FA01AA27283051F1203181F13F
:101B4000E8946F936E7F6E5F7F4F8F4F9F4FAF4FC5
:101B5000B1E03ED0B4E03CD0670F781F891F9A1FD8
:101B6000A11D680F791F8A1F911DA11D6A0F711D8C
:101B7000811D911DA11D20D009F468943F912AE098
:101B8000269F11243019305D3193DEF6CF01089580
:101B9000462F4770405D4193B3E00FD0C9F7F6CFB1
:101BA000462F4F70405D4A3318F0495D31FD405279
:101BB000419302D0A9F7EACFB4E0A695979587950F
:101BC00077956795BA95C9F70097610571050895EE
:101BD0009B01AC010A2E069457954795379527959A
:101BE000BA95C9F7620F731F841F951FA01D089532
:101BF0000E94420EA59F900DB49F900DA49F800D52
:101C0000911D11240895B7FF0C94F80D0E94F80D52
:101C1000821B930B08952F923F924F925F926F9287
:101C20007F928F929F92AF92BF92CF92DF92EF926C
:101C3000FF920F931F93CF93DF93CDB7DEB7CA1BED
:101C4000DB0B0FB6F894DEBF0FBECDBF09942A8818
:101C5000398848885F846E847D848C849B84AA84C0
:101C6000B984C884DF80EE80FD800C811B81AA814D
:101C7000B981CE0FD11D0FB6F894DEBF0FBECDBF18
:101C8000ED010895A29FB001B39FC001A39F700D05
:101C9000811D1124911DB29F700D811D1124911D74
:061CA0000895F894FFCF47
:101CA60001000000FF02F6DE2492E7CEE79EB7921F
:101CB600F39E93DEE492F7DEF79200DDB8EDC021E5
:101CC600184211C076E23333E076C661EDC00A0AE7
:101CD60048656C6C6F2066726F6D20746865204174
:101CE600546D65676133323850210A0A00426F6FBE
:101CF6006D2D426F6F6D004C6576656C3A2025320E
:101D06006400546F74616C3A0025396400506F6941
:101D16006E74733A00596F75204C6F73742E0057AA
:101D2600696E212020202020000A426F6172642003
:101D3600696E206D61696E2E5465737447616D65B9
:101D46003A0A000A4261636B20746F20426F617227
:101D56006420696E206D61696E2E546573744761E7
:101D66006D653A0A000A0A47616D65706C617920F3
:101D76004E65774C6576656C0A00626F6D62733AE4
:101D86002025640A005054733A2025640A0A004349
:101D9600726561746564206279204A6F68616E6E4F
:101DA600612000536861772E204261736564206F5D
:101DB6006666206100506F6B656D6F6E206D696E93
:101DC6006967616D6500507265737320616E792075
:101DD600627574746F6E20746F00626567696E0059
:00000001FF
